{
  "_format": "hh-sol-artifact-1",
  "contractName": "InfPortal",
  "sourceName": "contracts/InfPortal.sol",
  "abi": [
    {
      "inputs": [],
      "stateMutability": "payable",
      "type": "constructor"
    },
    {
      "anonymous": false,
      "inputs": [
        {
          "indexed": true,
          "internalType": "address",
          "name": "from",
          "type": "address"
        },
        {
          "indexed": false,
          "internalType": "uint256",
          "name": "timestamp",
          "type": "uint256"
        },
        {
          "indexed": false,
          "internalType": "string",
          "name": "message",
          "type": "string"
        }
      ],
      "name": "newInf",
      "type": "event"
    },
    {
      "inputs": [
        {
          "internalType": "address",
          "name": "",
          "type": "address"
        }
      ],
      "name": "data",
      "outputs": [
        {
          "internalType": "uint256",
          "name": "",
          "type": "uint256"
        }
      ],
      "stateMutability": "view",
      "type": "function"
    },
    {
      "inputs": [],
      "name": "getAllWaves",
      "outputs": [
        {
          "components": [
            {
              "internalType": "address",
              "name": "waver",
              "type": "address"
            },
            {
              "internalType": "uint256",
              "name": "timestamp",
              "type": "uint256"
            },
            {
              "internalType": "string",
              "name": "message",
              "type": "string"
            }
          ],
          "internalType": "struct InfPortal.Wave[]",
          "name": "",
          "type": "tuple[]"
        }
      ],
      "stateMutability": "view",
      "type": "function"
    },
    {
      "inputs": [],
      "name": "getTotalInf",
      "outputs": [
        {
          "internalType": "uint256",
          "name": "",
          "type": "uint256"
        }
      ],
      "stateMutability": "view",
      "type": "function"
    },
    {
      "inputs": [
        {
          "internalType": "string",
          "name": "_message",
          "type": "string"
        }
      ],
      "name": "inf",
      "outputs": [],
      "stateMutability": "nonpayable",
      "type": "function"
    }
  ],
  "bytecode": "0x60806040526200004f6040518060400160405280601781526020017f286e6f7420736f2920736d61727420636f6e74726163740000000000000000008152506200005560201b620004e31760201c565b620001e9565b620000f5816040516024016200006c919062000162565b6040516020818303038152906040527f41304fac000000000000000000000000000000000000000000000000000000007bffffffffffffffffffffffffffffffffffffffffffffffffffffffff19166020820180517bffffffffffffffffffffffffffffffffffffffffffffffffffffffff8381831617835250505050620000f860201b60201c565b50565b60008151905060006a636f6e736f6c652e6c6f679050602083016000808483855afa5050505050565b60006200012e8262000186565b6200013a818562000191565b93506200014c818560208601620001a2565b6200015781620001d8565b840191505092915050565b600060208201905081810360008301526200017e818462000121565b905092915050565b600081519050919050565b600082825260208201905092915050565b60005b83811015620001c2578082015181840152602081019050620001a5565b83811115620001d2576000848401525b50505050565b6000601f19601f8301169050919050565b610f4780620001f96000396000f3fe608060405234801561001057600080fd5b506004361061004c5760003560e01c806369878a4614610051578063b90d3d0c1461006f578063bd43a9081461009f578063debce65e146100bd575b600080fd5b6100596100d9565b6040516100669190610b50565b60405180910390f35b610089600480360381019061008491906107fd565b610107565b6040516100969190610b50565b60405180910390f35b6100a761011f565b6040516100b49190610a6c565b60405180910390f35b6100d760048036038101906100d29190610826565b610270565b005b60006100ff604051806060016040528060228152602001610ef06022913960005461057c565b600054905090565b60016020528060005260406000206000915090505481565b60606002805480602002602001604051908101604052809291908181526020016000905b8282101561026757838290600052602060002090600302016040518060600160405290816000820160009054906101000a900473ffffffffffffffffffffffffffffffffffffffff1673ffffffffffffffffffffffffffffffffffffffff1673ffffffffffffffffffffffffffffffffffffffff168152602001600182015481526020016002820180546101d690610d36565b80601f016020809104026020016040519081016040528092919081815260200182805461020290610d36565b801561024f5780601f106102245761010080835404028352916020019161024f565b820191906000526020600020905b81548152906001019060200180831161023257829003601f168201915b50505050508152505081526020019060010190610143565b50505050905090565b60016000808282546102829190610c62565b925050819055506102c86040518060400160405280601a81526020017f2573206861732073656e7420616e20696e66696e69747921212100000000000081525033610618565b600260405180606001604052803373ffffffffffffffffffffffffffffffffffffffff16815260200142815260200183815250908060018154018082558091505060019003906000526020600020906003020160009091909190915060008201518160000160006101000a81548173ffffffffffffffffffffffffffffffffffffffff021916908373ffffffffffffffffffffffffffffffffffffffff1602179055506020820151816001015560408201518160020190805190602001906103919291906106dd565b5050503373ffffffffffffffffffffffffffffffffffffffff167f04c2e80b1ea6392b043580374d64fcf82c7ea3bf34313563bb9f579c2498f19542836040516103dc929190610b6b565b60405180910390a26000655af3107a4000905047811115610432576040517f08c379a000000000000000000000000000000000000000000000000000000000815260040161042990610b10565b60405180910390fd5b60003373ffffffffffffffffffffffffffffffffffffffff168260405161045890610a57565b60006040518083038185875af1925050503d8060008114610495576040519150601f19603f3d011682016040523d82523d6000602084013e61049a565b606091505b50509050806104de576040517f08c379a00000000000000000000000000000000000000000000000000000000081526004016104d590610b30565b60405180910390fd5b505050565b610579816040516024016104f79190610a8e565b6040516020818303038152906040527f41304fac000000000000000000000000000000000000000000000000000000007bffffffffffffffffffffffffffffffffffffffffffffffffffffffff19166020820180517bffffffffffffffffffffffffffffffffffffffffffffffffffffffff83818316178352505050506106b4565b50565b6106148282604051602401610592929190610ae0565b6040516020818303038152906040527f9710a9d0000000000000000000000000000000000000000000000000000000007bffffffffffffffffffffffffffffffffffffffffffffffffffffffff19166020820180517bffffffffffffffffffffffffffffffffffffffffffffffffffffffff83818316178352505050506106b4565b5050565b6106b0828260405160240161062e929190610ab0565b6040516020818303038152906040527f319af333000000000000000000000000000000000000000000000000000000007bffffffffffffffffffffffffffffffffffffffffffffffffffffffff19166020820180517bffffffffffffffffffffffffffffffffffffffffffffffffffffffff83818316178352505050506106b4565b5050565b60008151905060006a636f6e736f6c652e6c6f679050602083016000808483855afa5050505050565b8280546106e990610d36565b90600052602060002090601f01602090048101928261070b5760008555610752565b82601f1061072457805160ff1916838001178555610752565b82800160010185558215610752579182015b82811115610751578251825591602001919060010190610736565b5b50905061075f9190610763565b5090565b5b8082111561077c576000816000905550600101610764565b5090565b600061079361078e84610bc0565b610b9b565b9050828152602081018484840111156107ab57600080fd5b6107b6848285610cf4565b509392505050565b6000813590506107cd81610ed8565b92915050565b600082601f8301126107e457600080fd5b81356107f4848260208601610780565b91505092915050565b60006020828403121561080f57600080fd5b600061081d848285016107be565b91505092915050565b60006020828403121561083857600080fd5b600082013567ffffffffffffffff81111561085257600080fd5b61085e848285016107d3565b91505092915050565b600061087383836109e9565b905092915050565b61088481610cb8565b82525050565b61089381610cb8565b82525050565b60006108a482610c01565b6108ae8185610c24565b9350836020820285016108c085610bf1565b8060005b858110156108fc57848403895281516108dd8582610867565b94506108e883610c17565b925060208a019950506001810190506108c4565b50829750879550505050505092915050565b600061091982610c0c565b6109238185610c40565b9350610933818560208601610d03565b61093c81610e26565b840191505092915050565b600061095282610c0c565b61095c8185610c51565b935061096c818560208601610d03565b61097581610e26565b840191505092915050565b600061098d600083610c35565b915061099882610e37565b600082019050919050565b60006109b0603383610c51565b91506109bb82610e3a565b604082019050919050565b60006109d3602683610c51565b91506109de82610e89565b604082019050919050565b6000606083016000830151610a01600086018261087b565b506020830151610a146020860182610a39565b5060408301518482036040860152610a2c828261090e565b9150508091505092915050565b610a4281610cea565b82525050565b610a5181610cea565b82525050565b6000610a6282610980565b9150819050919050565b60006020820190508181036000830152610a868184610899565b905092915050565b60006020820190508181036000830152610aa88184610947565b905092915050565b60006040820190508181036000830152610aca8185610947565b9050610ad9602083018461088a565b9392505050565b60006040820190508181036000830152610afa8185610947565b9050610b096020830184610a48565b9392505050565b60006020820190508181036000830152610b29816109a3565b9050919050565b60006020820190508181036000830152610b49816109c6565b9050919050565b6000602082019050610b656000830184610a48565b92915050565b6000604082019050610b806000830185610a48565b8181036020830152610b928184610947565b90509392505050565b6000610ba5610bb6565b9050610bb18282610d68565b919050565b6000604051905090565b600067ffffffffffffffff821115610bdb57610bda610df7565b5b610be482610e26565b9050602081019050919050565b6000819050602082019050919050565b600081519050919050565b600081519050919050565b6000602082019050919050565b600082825260208201905092915050565b600081905092915050565b600082825260208201905092915050565b600082825260208201905092915050565b6000610c6d82610cea565b9150610c7883610cea565b9250827fffffffffffffffffffffffffffffffffffffffffffffffffffffffffffffffff03821115610cad57610cac610d99565b5b828201905092915050565b6000610cc382610cca565b9050919050565b600073ffffffffffffffffffffffffffffffffffffffff82169050919050565b6000819050919050565b82818337600083830152505050565b60005b83811015610d21578082015181840152602081019050610d06565b83811115610d30576000848401525b50505050565b60006002820490506001821680610d4e57607f821691505b60208210811415610d6257610d61610dc8565b5b50919050565b610d7182610e26565b810181811067ffffffffffffffff82111715610d9057610d8f610df7565b5b80604052505050565b7f4e487b7100000000000000000000000000000000000000000000000000000000600052601160045260246000fd5b7f4e487b7100000000000000000000000000000000000000000000000000000000600052602260045260246000fd5b7f4e487b7100000000000000000000000000000000000000000000000000000000600052604160045260246000fd5b6000601f19601f8301169050919050565b50565b7f747279696e6720746f207769746864726177206d6f7265206d6f6e657920746860008201527f616e2074686520636f6e74726163742068617300000000000000000000000000602082015250565b7f6661696c656420746f207769746864726177206d6f6e65792066726f6d20636f60008201527f6e74726163740000000000000000000000000000000000000000000000000000602082015250565b610ee181610cb8565b8114610eec57600080fd5b5056fe6120746f74616c206f6620256420696e66696e697469657320726563696576656421a26469706673582212202f4933ef517728781b25780d8b0f3617640659eb2be4830c3c2a3d875548b98964736f6c63430008040033",
  "linkReferences": {},
  "deployedLinkReferences": {}
}