{
  "_format": "hh-sol-artifact-1",
  "contractName": "InfPortal",
  "sourceName": "contracts/InfPortal.sol",
  "abi": [
    {
      "inputs": [],
      "stateMutability": "payable",
      "type": "constructor"
    },
    {
      "anonymous": false,
      "inputs": [
        {
          "indexed": true,
          "internalType": "address",
          "name": "from",
          "type": "address"
        },
        {
          "indexed": false,
          "internalType": "uint256",
          "name": "timestamp",
          "type": "uint256"
        },
        {
          "indexed": false,
          "internalType": "string",
          "name": "message",
          "type": "string"
        }
      ],
      "name": "newInf",
      "type": "event"
    },
    {
      "inputs": [
        {
          "internalType": "address",
          "name": "",
          "type": "address"
        }
      ],
      "name": "data",
      "outputs": [
        {
          "internalType": "uint256",
          "name": "",
          "type": "uint256"
        }
      ],
      "stateMutability": "view",
      "type": "function"
    },
    {
      "inputs": [],
      "name": "getAllWaves",
      "outputs": [
        {
          "components": [
            {
              "internalType": "address",
              "name": "waver",
              "type": "address"
            },
            {
              "internalType": "uint256",
              "name": "timestamp",
              "type": "uint256"
            },
            {
              "internalType": "string",
              "name": "message",
              "type": "string"
            }
          ],
          "internalType": "struct InfPortal.Wave[]",
          "name": "",
          "type": "tuple[]"
        }
      ],
      "stateMutability": "view",
      "type": "function"
    },
    {
      "inputs": [],
      "name": "getTotalInf",
      "outputs": [
        {
          "internalType": "uint256",
          "name": "",
          "type": "uint256"
        }
      ],
      "stateMutability": "view",
      "type": "function"
    },
    {
      "inputs": [
        {
          "internalType": "string",
          "name": "_message",
          "type": "string"
        }
      ],
      "name": "inf",
      "outputs": [],
      "stateMutability": "nonpayable",
      "type": "function"
    },
    {
      "inputs": [
        {
          "internalType": "address",
          "name": "",
          "type": "address"
        }
      ],
      "name": "lastWavedAt",
      "outputs": [
        {
          "internalType": "uint256",
          "name": "",
          "type": "uint256"
        }
      ],
      "stateMutability": "view",
      "type": "function"
    }
  ],
  "bytecode": "0x60806040526200004f6040518060400160405280601781526020017f286e6f7420736f2920736d61727420636f6e74726163740000000000000000008152506200007760201b6200063e1760201c565b606444426200005f9190620001c4565b6200006b919062000261565b60028190555062000308565b62000117816040516024016200008e919062000184565b6040516020818303038152906040527f41304fac000000000000000000000000000000000000000000000000000000007bffffffffffffffffffffffffffffffffffffffffffffffffffffffff19166020820180517bffffffffffffffffffffffffffffffffffffffffffffffffffffffff83818316178352505050506200011a60201b60201c565b50565b60008151905060006a636f6e736f6c652e6c6f679050602083016000808483855afa5050505050565b60006200015082620001a8565b6200015c8185620001b3565b93506200016e8185602086016200022b565b6200017981620002f7565b840191505092915050565b60006020820190508181036000830152620001a0818462000143565b905092915050565b600081519050919050565b600082825260208201905092915050565b6000620001d18262000221565b9150620001de8362000221565b9250827fffffffffffffffffffffffffffffffffffffffffffffffffffffffffffffffff0382111562000216576200021562000299565b5b828201905092915050565b6000819050919050565b60005b838110156200024b5780820151818401526020810190506200022e565b838111156200025b576000848401525b50505050565b60006200026e8262000221565b91506200027b8362000221565b9250826200028e576200028d620002c8565b5b828206905092915050565b7f4e487b7100000000000000000000000000000000000000000000000000000000600052601160045260246000fd5b7f4e487b7100000000000000000000000000000000000000000000000000000000600052601260045260246000fd5b6000601f19601f8301169050919050565b61116e80620003186000396000f3fe608060405234801561001057600080fd5b50600436106100575760003560e01c806369878a461461005c578063a42a46631461007a578063b90d3d0c146100aa578063bd43a908146100da578063debce65e146100f8575b600080fd5b610064610114565b6040516100719190610cee565b60405180910390f35b610094600480360381019061008f9190610958565b610142565b6040516100a19190610cee565b60405180910390f35b6100c460048036038101906100bf9190610958565b61015a565b6040516100d19190610cee565b60405180910390f35b6100e2610172565b6040516100ef9190610bea565b60405180910390f35b610112600480360381019061010d9190610981565b6102c3565b005b600061013a604051806060016040528060228152602001611117602291396000546106d7565b600054905090565b60046020528060005260406000206000915090505481565b60016020528060005260406000206000915090505481565b60606003805480602002602001604051908101604052809291908181526020016000905b828210156102ba57838290600052602060002090600302016040518060600160405290816000820160009054906101000a900473ffffffffffffffffffffffffffffffffffffffff1673ffffffffffffffffffffffffffffffffffffffff1673ffffffffffffffffffffffffffffffffffffffff1681526020016001820154815260200160028201805461022990610ed4565b80601f016020809104026020016040519081016040528092919081815260200182805461025590610ed4565b80156102a25780601f10610277576101008083540402835291602001916102a2565b820191906000526020600020905b81548152906001019060200180831161028557829003601f168201915b50505050508152505081526020019060010190610196565b50505050905090565b42610384600460003373ffffffffffffffffffffffffffffffffffffffff1673ffffffffffffffffffffffffffffffffffffffff168152602001908152602001600020546103119190610e00565b10610351576040517f08c379a000000000000000000000000000000000000000000000000000000000815260040161034890610c8e565b60405180910390fd5b42600460003373ffffffffffffffffffffffffffffffffffffffff1673ffffffffffffffffffffffffffffffffffffffff1681526020019081526020016000208190555060016000808282546103a79190610e00565b925050819055506103ed6040518060400160405280601a81526020017f2573206861732073656e7420616e20696e66696e69747921212100000000000081525033610773565b600360405180606001604052803373ffffffffffffffffffffffffffffffffffffffff16815260200142815260200183815250908060018154018082558091505060019003906000526020600020906003020160009091909190915060008201518160000160006101000a81548173ffffffffffffffffffffffffffffffffffffffff021916908373ffffffffffffffffffffffffffffffffffffffff1602179055506020820151816001015560408201518160020190805190602001906104b6929190610838565b505050606460025442446104ca9190610e00565b6104d49190610e00565b6104de9190610f37565b6002819055506032600254116105eb576000655af3107a400090504781111561053c576040517f08c379a000000000000000000000000000000000000000000000000000000000815260040161053390610cae565b60405180910390fd5b60003373ffffffffffffffffffffffffffffffffffffffff168260405161056290610bd5565b60006040518083038185875af1925050503d806000811461059f576040519150601f19603f3d011682016040523d82523d6000602084013e6105a4565b606091505b50509050806105e8576040517f08c379a00000000000000000000000000000000000000000000000000000000081526004016105df90610cce565b60405180910390fd5b50505b3373ffffffffffffffffffffffffffffffffffffffff167f04c2e80b1ea6392b043580374d64fcf82c7ea3bf34313563bb9f579c2498f1954283604051610633929190610d09565b60405180910390a250565b6106d4816040516024016106529190610c0c565b6040516020818303038152906040527f41304fac000000000000000000000000000000000000000000000000000000007bffffffffffffffffffffffffffffffffffffffffffffffffffffffff19166020820180517bffffffffffffffffffffffffffffffffffffffffffffffffffffffff838183161783525050505061080f565b50565b61076f82826040516024016106ed929190610c5e565b6040516020818303038152906040527f9710a9d0000000000000000000000000000000000000000000000000000000007bffffffffffffffffffffffffffffffffffffffffffffffffffffffff19166020820180517bffffffffffffffffffffffffffffffffffffffffffffffffffffffff838183161783525050505061080f565b5050565b61080b8282604051602401610789929190610c2e565b6040516020818303038152906040527f319af333000000000000000000000000000000000000000000000000000000007bffffffffffffffffffffffffffffffffffffffffffffffffffffffff19166020820180517bffffffffffffffffffffffffffffffffffffffffffffffffffffffff838183161783525050505061080f565b5050565b60008151905060006a636f6e736f6c652e6c6f679050602083016000808483855afa5050505050565b82805461084490610ed4565b90600052602060002090601f01602090048101928261086657600085556108ad565b82601f1061087f57805160ff19168380011785556108ad565b828001600101855582156108ad579182015b828111156108ac578251825591602001919060010190610891565b5b5090506108ba91906108be565b5090565b5b808211156108d75760008160009055506001016108bf565b5090565b60006108ee6108e984610d5e565b610d39565b90508281526020810184848401111561090657600080fd5b610911848285610e92565b509392505050565b600081359050610928816110ff565b92915050565b600082601f83011261093f57600080fd5b813561094f8482602086016108db565b91505092915050565b60006020828403121561096a57600080fd5b600061097884828501610919565b91505092915050565b60006020828403121561099357600080fd5b600082013567ffffffffffffffff8111156109ad57600080fd5b6109b98482850161092e565b91505092915050565b60006109ce8383610b67565b905092915050565b6109df81610e56565b82525050565b6109ee81610e56565b82525050565b60006109ff82610d9f565b610a098185610dc2565b935083602082028501610a1b85610d8f565b8060005b85811015610a575784840389528151610a3885826109c2565b9450610a4383610db5565b925060208a01995050600181019050610a1f565b50829750879550505050505092915050565b6000610a7482610daa565b610a7e8185610dde565b9350610a8e818560208601610ea1565b610a9781611024565b840191505092915050565b6000610aad82610daa565b610ab78185610def565b9350610ac7818560208601610ea1565b610ad081611024565b840191505092915050565b6000610ae8600883610def565b9150610af382611035565b602082019050919050565b6000610b0b600083610dd3565b9150610b168261105e565b600082019050919050565b6000610b2e603383610def565b9150610b3982611061565b604082019050919050565b6000610b51602683610def565b9150610b5c826110b0565b604082019050919050565b6000606083016000830151610b7f60008601826109d6565b506020830151610b926020860182610bb7565b5060408301518482036040860152610baa8282610a69565b9150508091505092915050565b610bc081610e88565b82525050565b610bcf81610e88565b82525050565b6000610be082610afe565b9150819050919050565b60006020820190508181036000830152610c0481846109f4565b905092915050565b60006020820190508181036000830152610c268184610aa2565b905092915050565b60006040820190508181036000830152610c488185610aa2565b9050610c5760208301846109e5565b9392505050565b60006040820190508181036000830152610c788185610aa2565b9050610c876020830184610bc6565b9392505050565b60006020820190508181036000830152610ca781610adb565b9050919050565b60006020820190508181036000830152610cc781610b21565b9050919050565b60006020820190508181036000830152610ce781610b44565b9050919050565b6000602082019050610d036000830184610bc6565b92915050565b6000604082019050610d1e6000830185610bc6565b8181036020830152610d308184610aa2565b90509392505050565b6000610d43610d54565b9050610d4f8282610f06565b919050565b6000604051905090565b600067ffffffffffffffff821115610d7957610d78610ff5565b5b610d8282611024565b9050602081019050919050565b6000819050602082019050919050565b600081519050919050565b600081519050919050565b6000602082019050919050565b600082825260208201905092915050565b600081905092915050565b600082825260208201905092915050565b600082825260208201905092915050565b6000610e0b82610e88565b9150610e1683610e88565b9250827fffffffffffffffffffffffffffffffffffffffffffffffffffffffffffffffff03821115610e4b57610e4a610f68565b5b828201905092915050565b6000610e6182610e68565b9050919050565b600073ffffffffffffffffffffffffffffffffffffffff82169050919050565b6000819050919050565b82818337600083830152505050565b60005b83811015610ebf578082015181840152602081019050610ea4565b83811115610ece576000848401525b50505050565b60006002820490506001821680610eec57607f821691505b60208210811415610f0057610eff610fc6565b5b50919050565b610f0f82611024565b810181811067ffffffffffffffff82111715610f2e57610f2d610ff5565b5b80604052505050565b6000610f4282610e88565b9150610f4d83610e88565b925082610f5d57610f5c610f97565b5b828206905092915050565b7f4e487b7100000000000000000000000000000000000000000000000000000000600052601160045260246000fd5b7f4e487b7100000000000000000000000000000000000000000000000000000000600052601260045260246000fd5b7f4e487b7100000000000000000000000000000000000000000000000000000000600052602260045260246000fd5b7f4e487b7100000000000000000000000000000000000000000000000000000000600052604160045260246000fd5b6000601f19601f8301169050919050565b7f776169742031356d000000000000000000000000000000000000000000000000600082015250565b50565b7f747279696e6720746f207769746864726177206d6f7265206d6f6e657920746860008201527f616e2074686520636f6e74726163742068617300000000000000000000000000602082015250565b7f6661696c656420746f207769746864726177206d6f6e65792066726f6d20636f60008201527f6e74726163740000000000000000000000000000000000000000000000000000602082015250565b61110881610e56565b811461111357600080fd5b5056fe6120746f74616c206f6620256420696e66696e697469657320726563696576656421a264697066735822122030a5978d6034eee9a58f4fcf911602692483a7a72d8f5365127c797bf910c36564736f6c63430008040033",
  "linkReferences": {},
  "deployedLinkReferences": {}
}