{
  "_format": "hh-sol-artifact-1",
  "contractName": "InfPortal",
  "sourceName": "contracts/InfPortal.sol",
  "abi": [
    {
      "inputs": [],
      "stateMutability": "nonpayable",
      "type": "constructor"
    },
    {
      "inputs": [
        {
          "internalType": "uint256",
          "name": "",
          "type": "uint256"
        }
      ],
      "name": "addArray",
      "outputs": [
        {
          "internalType": "address",
          "name": "",
          "type": "address"
        }
      ],
      "stateMutability": "view",
      "type": "function"
    },
    {
      "inputs": [
        {
          "internalType": "address",
          "name": "",
          "type": "address"
        }
      ],
      "name": "data",
      "outputs": [
        {
          "internalType": "uint256",
          "name": "",
          "type": "uint256"
        }
      ],
      "stateMutability": "view",
      "type": "function"
    },
    {
      "inputs": [],
      "name": "getData",
      "outputs": [
        {
          "internalType": "address[]",
          "name": "",
          "type": "address[]"
        },
        {
          "internalType": "uint256[]",
          "name": "",
          "type": "uint256[]"
        }
      ],
      "stateMutability": "view",
      "type": "function"
    },
    {
      "inputs": [],
      "name": "getTotalInf",
      "outputs": [
        {
          "internalType": "uint256",
          "name": "",
          "type": "uint256"
        }
      ],
      "stateMutability": "view",
      "type": "function"
    },
    {
      "inputs": [
        {
          "internalType": "address",
          "name": "someAdd",
          "type": "address"
        }
      ],
      "name": "inArray",
      "outputs": [
        {
          "internalType": "bool",
          "name": "",
          "type": "bool"
        }
      ],
      "stateMutability": "view",
      "type": "function"
    },
    {
      "inputs": [],
      "name": "inf",
      "outputs": [],
      "stateMutability": "nonpayable",
      "type": "function"
    },
    {
      "inputs": [],
      "name": "logData",
      "outputs": [],
      "stateMutability": "view",
      "type": "function"
    }
  ],
  "bytecode": "0x60806040523480156200001157600080fd5b506200005d6040518060400160405280601781526020017f286e6f7420736f2920736d61727420636f6e74726163740000000000000000008152506200006360201b620007b61760201c565b620001f7565b62000103816040516024016200007a919062000170565b6040516020818303038152906040527f41304fac000000000000000000000000000000000000000000000000000000007bffffffffffffffffffffffffffffffffffffffffffffffffffffffff19166020820180517bffffffffffffffffffffffffffffffffffffffffffffffffffffffff83818316178352505050506200010660201b60201c565b50565b60008151905060006a636f6e736f6c652e6c6f679050602083016000808483855afa5050505050565b60006200013c8262000194565b6200014881856200019f565b93506200015a818560208601620001b0565b6200016581620001e6565b840191505092915050565b600060208201905081810360008301526200018c81846200012f565b905092915050565b600081519050919050565b600082825260208201905092915050565b60005b83811015620001d0578082015181840152602081019050620001b3565b83811115620001e0576000848401525b50505050565b6000601f19601f8301169050919050565b610ff180620002076000396000f3fe608060405234801561001057600080fd5b506004361061007d5760003560e01c8063aa0a91711161005b578063aa0a9171146100c9578063b90d3d0c146100f9578063bcc17dc714610129578063deac4659146101335761007d565b806332f276ec146100825780633bc5de301461008c57806369878a46146100ab575b600080fd5b61008a610163565b005b610094610284565b6040516100a2929190610c56565b60405180910390f35b6100b3610568565b6040516100c09190610d68565b60405180910390f35b6100e360048036038101906100de9190610aa2565b610596565b6040516100f09190610c3b565b60405180910390f35b610113600480360381019061010e9190610a79565b6105d5565b6040516101209190610d68565b60405180910390f35b6101316105ed565b005b61014d60048036038101906101489190610a79565b61075a565b60405161015a9190610c8d565b60405180910390f35b60016000808282546101759190610e11565b925050819055506101bb6040518060400160405280601a81526020017f2573206861732073656e7420616e20696e66696e6974792121210000000000008152503361084f565b6101c43361075a565b61022c576002339080600181540180825580915050600190039060005260206000200160009091909190916101000a81548173ffffffffffffffffffffffffffffffffffffffff021916908373ffffffffffffffffffffffffffffffffffffffff1602179055505b60018060003373ffffffffffffffffffffffffffffffffffffffff1673ffffffffffffffffffffffffffffffffffffffff168152602001908152602001600020600082825461027b9190610e11565b92505081905550565b606080600060028054905067ffffffffffffffff8111156102ce577f4e487b7100000000000000000000000000000000000000000000000000000000600052604160045260246000fd5b6040519080825280602002602001820160405280156102fc5781602001602082028036833780820191505090505b509050600060028054905067ffffffffffffffff811115610346577f4e487b7100000000000000000000000000000000000000000000000000000000600052604160045260246000fd5b6040519080825280602002602001820160405280156103745781602001602082028036833780820191505090505b50905060005b60028054905081101561055b57600281815481106103c1577f4e487b7100000000000000000000000000000000000000000000000000000000600052603260045260246000fd5b9060005260206000200160009054906101000a900473ffffffffffffffffffffffffffffffffffffffff16838281518110610425577f4e487b7100000000000000000000000000000000000000000000000000000000600052603260045260246000fd5b602002602001019073ffffffffffffffffffffffffffffffffffffffff16908173ffffffffffffffffffffffffffffffffffffffff1681525050600160006002838154811061049d577f4e487b7100000000000000000000000000000000000000000000000000000000600052603260045260246000fd5b9060005260206000200160009054906101000a900473ffffffffffffffffffffffffffffffffffffffff1673ffffffffffffffffffffffffffffffffffffffff1673ffffffffffffffffffffffffffffffffffffffff1681526020019081526020016000205482828151811061053c577f4e487b7100000000000000000000000000000000000000000000000000000000600052603260045260246000fd5b602002602001018181525050808061055390610ee2565b91505061037a565b5081819350935050509091565b600061058e604051806060016040528060228152602001610f9a602291396000546108eb565b600054905090565b600281815481106105a657600080fd5b906000526020600020016000915054906101000a900473ffffffffffffffffffffffffffffffffffffffff1681565b60016020528060005260406000206000915090505481565b60005b600280549050811015610757576107446040518060400160405280601581526020017f2573206761766520256420696e66696e6974696573000000000000000000000081525060028381548110610670577f4e487b7100000000000000000000000000000000000000000000000000000000600052603260045260246000fd5b9060005260206000200160009054906101000a900473ffffffffffffffffffffffffffffffffffffffff1660016000600286815481106106d9577f4e487b7100000000000000000000000000000000000000000000000000000000600052603260045260246000fd5b9060005260206000200160009054906101000a900473ffffffffffffffffffffffffffffffffffffffff1673ffffffffffffffffffffffffffffffffffffffff1673ffffffffffffffffffffffffffffffffffffffff16815260200190815260200160002054610987565b808061074f90610ee2565b9150506105f0565b50565b600080600160008473ffffffffffffffffffffffffffffffffffffffff1673ffffffffffffffffffffffffffffffffffffffff1681526020019081526020016000205411156107ac57600190506107b1565b600090505b919050565b61084c816040516024016107ca9190610ca8565b6040516020818303038152906040527f41304fac000000000000000000000000000000000000000000000000000000007bffffffffffffffffffffffffffffffffffffffffffffffffffffffff19166020820180517bffffffffffffffffffffffffffffffffffffffffffffffffffffffff8381831617835250505050610a26565b50565b6108e78282604051602401610865929190610cca565b6040516020818303038152906040527f319af333000000000000000000000000000000000000000000000000000000007bffffffffffffffffffffffffffffffffffffffffffffffffffffffff19166020820180517bffffffffffffffffffffffffffffffffffffffffffffffffffffffff8381831617835250505050610a26565b5050565b6109838282604051602401610901929190610d38565b6040516020818303038152906040527f9710a9d0000000000000000000000000000000000000000000000000000000007bffffffffffffffffffffffffffffffffffffffffffffffffffffffff19166020820180517bffffffffffffffffffffffffffffffffffffffffffffffffffffffff8381831617835250505050610a26565b5050565b610a2183838360405160240161099f93929190610cfa565b6040516020818303038152906040527f07c81217000000000000000000000000000000000000000000000000000000007bffffffffffffffffffffffffffffffffffffffffffffffffffffffff19166020820180517bffffffffffffffffffffffffffffffffffffffffffffffffffffffff8381831617835250505050610a26565b505050565b60008151905060006a636f6e736f6c652e6c6f679050602083016000808483855afa5050505050565b600081359050610a5e81610f6b565b92915050565b600081359050610a7381610f82565b92915050565b600060208284031215610a8b57600080fd5b6000610a9984828501610a4f565b91505092915050565b600060208284031215610ab457600080fd5b6000610ac284828501610a64565b91505092915050565b6000610ad78383610afb565b60208301905092915050565b6000610aef8383610c1d565b60208301905092915050565b610b0481610e67565b82525050565b610b1381610e67565b82525050565b6000610b2482610da3565b610b2e8185610dde565b9350610b3983610d83565b8060005b83811015610b6a578151610b518882610acb565b9750610b5c83610dc4565b925050600181019050610b3d565b5085935050505092915050565b6000610b8282610dae565b610b8c8185610def565b9350610b9783610d93565b8060005b83811015610bc8578151610baf8882610ae3565b9750610bba83610dd1565b925050600181019050610b9b565b5085935050505092915050565b610bde81610e79565b82525050565b6000610bef82610db9565b610bf98185610e00565b9350610c09818560208601610eaf565b610c1281610f5a565b840191505092915050565b610c2681610ea5565b82525050565b610c3581610ea5565b82525050565b6000602082019050610c506000830184610b0a565b92915050565b60006040820190508181036000830152610c708185610b19565b90508181036020830152610c848184610b77565b90509392505050565b6000602082019050610ca26000830184610bd5565b92915050565b60006020820190508181036000830152610cc28184610be4565b905092915050565b60006040820190508181036000830152610ce48185610be4565b9050610cf36020830184610b0a565b9392505050565b60006060820190508181036000830152610d148186610be4565b9050610d236020830185610b0a565b610d306040830184610c2c565b949350505050565b60006040820190508181036000830152610d528185610be4565b9050610d616020830184610c2c565b9392505050565b6000602082019050610d7d6000830184610c2c565b92915050565b6000819050602082019050919050565b6000819050602082019050919050565b600081519050919050565b600081519050919050565b600081519050919050565b6000602082019050919050565b6000602082019050919050565b600082825260208201905092915050565b600082825260208201905092915050565b600082825260208201905092915050565b6000610e1c82610ea5565b9150610e2783610ea5565b9250827fffffffffffffffffffffffffffffffffffffffffffffffffffffffffffffffff03821115610e5c57610e5b610f2b565b5b828201905092915050565b6000610e7282610e85565b9050919050565b60008115159050919050565b600073ffffffffffffffffffffffffffffffffffffffff82169050919050565b6000819050919050565b60005b83811015610ecd578082015181840152602081019050610eb2565b83811115610edc576000848401525b50505050565b6000610eed82610ea5565b91507fffffffffffffffffffffffffffffffffffffffffffffffffffffffffffffffff821415610f2057610f1f610f2b565b5b600182019050919050565b7f4e487b7100000000000000000000000000000000000000000000000000000000600052601160045260246000fd5b6000601f19601f8301169050919050565b610f7481610e67565b8114610f7f57600080fd5b50565b610f8b81610ea5565b8114610f9657600080fd5b5056fe6120746f74616c206f6620256420696e66696e697469657320726563696576656421a2646970667358221220f235351968a18c6e06b7fb781f40d76f98adf0ac20a4b6fc37c227b372b6a3f864736f6c63430008040033",
  "linkReferences": {},
  "deployedLinkReferences": {}
}