{
    "_format": "hh-sol-artifact-1",
    "contractName": "InfPortal",
    "sourceName": "contracts/InfPortal.sol",
    "abi": [
        {
            "inputs": [],
            "stateMutability": "nonpayable",
            "type": "constructor"
        },
        {
            "inputs": [
                {
                    "internalType": "uint256",
                    "name": "",
                    "type": "uint256"
                }
            ],
            "name": "addArray",
            "outputs": [
                {
                    "internalType": "address",
                    "name": "",
                    "type": "address"
                }
            ],
            "stateMutability": "view",
            "type": "function"
        },
        {
            "inputs": [
                {
                    "internalType": "address",
                    "name": "",
                    "type": "address"
                }
            ],
            "name": "data",
            "outputs": [
                {
                    "internalType": "uint256",
                    "name": "",
                    "type": "uint256"
                }
            ],
            "stateMutability": "view",
            "type": "function"
        },
        {
            "inputs": [],
            "name": "getData",
            "outputs": [],
            "stateMutability": "view",
            "type": "function"
        },
        {
            "inputs": [],
            "name": "getTotalInf",
            "outputs": [
                {
                    "internalType": "uint256",
                    "name": "",
                    "type": "uint256"
                }
            ],
            "stateMutability": "view",
            "type": "function"
        },
        {
            "inputs": [
                {
                    "internalType": "address",
                    "name": "someAdd",
                    "type": "address"
                }
            ],
            "name": "inArray",
            "outputs": [
                {
                    "internalType": "bool",
                    "name": "",
                    "type": "bool"
                }
            ],
            "stateMutability": "view",
            "type": "function"
        },
        {
            "inputs": [],
            "name": "inf",
            "outputs": [],
            "stateMutability": "nonpayable",
            "type": "function"
        }
    ],
    "bytecode": "0x608060405234801561001057600080fd5b506100596040518060400160405280601781526020017f286e6f7420736f2920736d61727420636f6e747261637400000000000000000081525061005e60201b6104981760201c565b6101e1565b6100fa81604051602401610072919061015f565b6040516020818303038152906040527f41304fac000000000000000000000000000000000000000000000000000000007bffffffffffffffffffffffffffffffffffffffffffffffffffffffff19166020820180517bffffffffffffffffffffffffffffffffffffffffffffffffffffffff83818316178352505050506100fd60201b60201c565b50565b60008151905060006a636f6e736f6c652e6c6f679050602083016000808483855afa5050505050565b600061013182610181565b61013b818561018c565b935061014b81856020860161019d565b610154816101d0565b840191505092915050565b600060208201905081810360008301526101798184610126565b905092915050565b600081519050919050565b600082825260208201905092915050565b60005b838110156101bb5780820151818401526020810190506101a0565b838111156101ca576000848401525b50505050565b6000601f19601f8301169050919050565b610b2080620001f16000396000f3fe608060405234801561001057600080fd5b50600436106100625760003560e01c806332f276ec146100675780633bc5de301461007157806369878a461461007b578063aa0a917114610099578063b90d3d0c146100c9578063deac4659146100f9575b600080fd5b61006f610129565b005b61007961024a565b005b6100836103b7565b6040516100909190610909565b60405180910390f35b6100b360048036038101906100ae9190610784565b6103e5565b6040516100c09190610813565b60405180910390f35b6100e360048036038101906100de919061075b565b610424565b6040516100f09190610909565b60405180910390f35b610113600480360381019061010e919061075b565b61043c565b604051610120919061082e565b60405180910390f35b600160008082825461013b9190610940565b925050819055506101816040518060400160405280601a81526020017f2573206861732073656e7420616e20696e66696e69747921212100000000000081525033610531565b61018a3361043c565b6101f2576002339080600181540180825580915050600190039060005260206000200160009091909190916101000a81548173ffffffffffffffffffffffffffffffffffffffff021916908373ffffffffffffffffffffffffffffffffffffffff1602179055505b60018060003373ffffffffffffffffffffffffffffffffffffffff1673ffffffffffffffffffffffffffffffffffffffff16815260200190815260200160002060008282546102419190610940565b92505081905550565b60005b6002805490508110156103b4576103a16040518060400160405280601581526020017f2573206761766520256420696e66696e69746965730000000000000000000000815250600283815481106102cd577f4e487b7100000000000000000000000000000000000000000000000000000000600052603260045260246000fd5b9060005260206000200160009054906101000a900473ffffffffffffffffffffffffffffffffffffffff166001600060028681548110610336577f4e487b7100000000000000000000000000000000000000000000000000000000600052603260045260246000fd5b9060005260206000200160009054906101000a900473ffffffffffffffffffffffffffffffffffffffff1673ffffffffffffffffffffffffffffffffffffffff1673ffffffffffffffffffffffffffffffffffffffff168152602001908152602001600020546105cd565b80806103ac90610a11565b91505061024d565b50565b60006103dd604051806060016040528060228152602001610ac96022913960005461066c565b600054905090565b600281815481106103f557600080fd5b906000526020600020016000915054906101000a900473ffffffffffffffffffffffffffffffffffffffff1681565b60016020528060005260406000206000915090505481565b600080600160008473ffffffffffffffffffffffffffffffffffffffff1673ffffffffffffffffffffffffffffffffffffffff16815260200190815260200160002054111561048e5760019050610493565b600090505b919050565b61052e816040516024016104ac9190610849565b6040516020818303038152906040527f41304fac000000000000000000000000000000000000000000000000000000007bffffffffffffffffffffffffffffffffffffffffffffffffffffffff19166020820180517bffffffffffffffffffffffffffffffffffffffffffffffffffffffff8381831617835250505050610708565b50565b6105c9828260405160240161054792919061086b565b6040516020818303038152906040527f319af333000000000000000000000000000000000000000000000000000000007bffffffffffffffffffffffffffffffffffffffffffffffffffffffff19166020820180517bffffffffffffffffffffffffffffffffffffffffffffffffffffffff8381831617835250505050610708565b5050565b6106678383836040516024016105e59392919061089b565b6040516020818303038152906040527f07c81217000000000000000000000000000000000000000000000000000000007bffffffffffffffffffffffffffffffffffffffffffffffffffffffff19166020820180517bffffffffffffffffffffffffffffffffffffffffffffffffffffffff8381831617835250505050610708565b505050565b61070482826040516024016106829291906108d9565b6040516020818303038152906040527f9710a9d0000000000000000000000000000000000000000000000000000000007bffffffffffffffffffffffffffffffffffffffffffffffffffffffff19166020820180517bffffffffffffffffffffffffffffffffffffffffffffffffffffffff8381831617835250505050610708565b5050565b60008151905060006a636f6e736f6c652e6c6f679050602083016000808483855afa5050505050565b60008135905061074081610a9a565b92915050565b60008135905061075581610ab1565b92915050565b60006020828403121561076d57600080fd5b600061077b84828501610731565b91505092915050565b60006020828403121561079657600080fd5b60006107a484828501610746565b91505092915050565b6107b681610996565b82525050565b6107c5816109a8565b82525050565b60006107d682610924565b6107e0818561092f565b93506107f08185602086016109de565b6107f981610a89565b840191505092915050565b61080d816109d4565b82525050565b600060208201905061082860008301846107ad565b92915050565b600060208201905061084360008301846107bc565b92915050565b6000602082019050818103600083015261086381846107cb565b905092915050565b6000604082019050818103600083015261088581856107cb565b905061089460208301846107ad565b9392505050565b600060608201905081810360008301526108b581866107cb565b90506108c460208301856107ad565b6108d16040830184610804565b949350505050565b600060408201905081810360008301526108f381856107cb565b90506109026020830184610804565b9392505050565b600060208201905061091e6000830184610804565b92915050565b600081519050919050565b600082825260208201905092915050565b600061094b826109d4565b9150610956836109d4565b9250827fffffffffffffffffffffffffffffffffffffffffffffffffffffffffffffffff0382111561098b5761098a610a5a565b5b828201905092915050565b60006109a1826109b4565b9050919050565b60008115159050919050565b600073ffffffffffffffffffffffffffffffffffffffff82169050919050565b6000819050919050565b60005b838110156109fc5780820151818401526020810190506109e1565b83811115610a0b576000848401525b50505050565b6000610a1c826109d4565b91507fffffffffffffffffffffffffffffffffffffffffffffffffffffffffffffffff821415610a4f57610a4e610a5a565b5b600182019050919050565b7f4e487b7100000000000000000000000000000000000000000000000000000000600052601160045260246000fd5b6000601f19601f8301169050919050565b610aa381610996565b8114610aae57600080fd5b50565b610aba816109d4565b8114610ac557600080fd5b5056fe6120746f74616c206f6620256420696e66696e697469657320726563696576656421a26469706673582212208a4bc126c77147dd57079be87be77253852b1be29fcf1409a9b016b5249d214964736f6c63430008040033",
    "linkReferences": {},
    "deployedLinkReferences": {}
}