{
  "_format": "hh-sol-artifact-1",
  "contractName": "InfPortal",
  "sourceName": "contracts/InfPortal.sol",
  "abi": [
    {
      "inputs": [],
      "stateMutability": "payable",
      "type": "constructor"
    },
    {
      "anonymous": false,
      "inputs": [
        {
          "indexed": true,
          "internalType": "address",
          "name": "from",
          "type": "address"
        },
        {
          "indexed": false,
          "internalType": "uint256",
          "name": "timestamp",
          "type": "uint256"
        },
        {
          "indexed": false,
          "internalType": "string",
          "name": "message",
          "type": "string"
        }
      ],
      "name": "newInf",
      "type": "event"
    },
    {
      "inputs": [
        {
          "internalType": "address",
          "name": "",
          "type": "address"
        }
      ],
      "name": "data",
      "outputs": [
        {
          "internalType": "uint256",
          "name": "",
          "type": "uint256"
        }
      ],
      "stateMutability": "view",
      "type": "function"
    },
    {
      "inputs": [],
      "name": "getAllWaves",
      "outputs": [
        {
          "components": [
            {
              "internalType": "address",
              "name": "waver",
              "type": "address"
            },
            {
              "internalType": "uint256",
              "name": "timestamp",
              "type": "uint256"
            },
            {
              "internalType": "string",
              "name": "message",
              "type": "string"
            }
          ],
          "internalType": "struct InfPortal.Wave[]",
          "name": "",
          "type": "tuple[]"
        }
      ],
      "stateMutability": "view",
      "type": "function"
    },
    {
      "inputs": [],
      "name": "getTotalInf",
      "outputs": [
        {
          "internalType": "uint256",
          "name": "",
          "type": "uint256"
        }
      ],
      "stateMutability": "view",
      "type": "function"
    },
    {
      "inputs": [
        {
          "internalType": "string",
          "name": "_message",
          "type": "string"
        }
      ],
      "name": "inf",
      "outputs": [],
      "stateMutability": "nonpayable",
      "type": "function"
    }
  ],
  "bytecode": "0x60806040526200004f6040518060400160405280601781526020017f286e6f7420736f2920736d61727420636f6e74726163740000000000000000008152506200005560201b620004e41760201c565b620001e9565b620000f5816040516024016200006c919062000162565b6040516020818303038152906040527f41304fac000000000000000000000000000000000000000000000000000000007bffffffffffffffffffffffffffffffffffffffffffffffffffffffff19166020820180517bffffffffffffffffffffffffffffffffffffffffffffffffffffffff8381831617835250505050620000f860201b60201c565b50565b60008151905060006a636f6e736f6c652e6c6f679050602083016000808483855afa5050505050565b60006200012e8262000186565b6200013a818562000191565b93506200014c818560208601620001a2565b6200015781620001d8565b840191505092915050565b600060208201905081810360008301526200017e818462000121565b905092915050565b600081519050919050565b600082825260208201905092915050565b60005b83811015620001c2578082015181840152602081019050620001a5565b83811115620001d2576000848401525b50505050565b6000601f19601f8301169050919050565b610f4880620001f96000396000f3fe608060405234801561001057600080fd5b506004361061004c5760003560e01c806369878a4614610051578063b90d3d0c1461006f578063bd43a9081461009f578063debce65e146100bd575b600080fd5b6100596100d9565b6040516100669190610b51565b60405180910390f35b610089600480360381019061008491906107fe565b610107565b6040516100969190610b51565b60405180910390f35b6100a761011f565b6040516100b49190610a6d565b60405180910390f35b6100d760048036038101906100d29190610827565b610270565b005b60006100ff604051806060016040528060228152602001610ef16022913960005461057d565b600054905090565b60016020528060005260406000206000915090505481565b60606002805480602002602001604051908101604052809291908181526020016000905b8282101561026757838290600052602060002090600302016040518060600160405290816000820160009054906101000a900473ffffffffffffffffffffffffffffffffffffffff1673ffffffffffffffffffffffffffffffffffffffff1673ffffffffffffffffffffffffffffffffffffffff168152602001600182015481526020016002820180546101d690610d37565b80601f016020809104026020016040519081016040528092919081815260200182805461020290610d37565b801561024f5780601f106102245761010080835404028352916020019161024f565b820191906000526020600020905b81548152906001019060200180831161023257829003601f168201915b50505050508152505081526020019060010190610143565b50505050905090565b60016000808282546102829190610c63565b925050819055506102c86040518060400160405280601a81526020017f2573206861732073656e7420616e20696e66696e69747921212100000000000081525033610619565b600260405180606001604052803373ffffffffffffffffffffffffffffffffffffffff16815260200142815260200183815250908060018154018082558091505060019003906000526020600020906003020160009091909190915060008201518160000160006101000a81548173ffffffffffffffffffffffffffffffffffffffff021916908373ffffffffffffffffffffffffffffffffffffffff1602179055506020820151816001015560408201518160020190805190602001906103919291906106de565b5050503373ffffffffffffffffffffffffffffffffffffffff167f04c2e80b1ea6392b043580374d64fcf82c7ea3bf34313563bb9f579c2498f19542836040516103dc929190610b6c565b60405180910390a2600066038d7ea4c68000905047811115610433576040517f08c379a000000000000000000000000000000000000000000000000000000000815260040161042a90610b11565b60405180910390fd5b60003373ffffffffffffffffffffffffffffffffffffffff168260405161045990610a58565b60006040518083038185875af1925050503d8060008114610496576040519150601f19603f3d011682016040523d82523d6000602084013e61049b565b606091505b50509050806104df576040517f08c379a00000000000000000000000000000000000000000000000000000000081526004016104d690610b31565b60405180910390fd5b505050565b61057a816040516024016104f89190610a8f565b6040516020818303038152906040527f41304fac000000000000000000000000000000000000000000000000000000007bffffffffffffffffffffffffffffffffffffffffffffffffffffffff19166020820180517bffffffffffffffffffffffffffffffffffffffffffffffffffffffff83818316178352505050506106b5565b50565b6106158282604051602401610593929190610ae1565b6040516020818303038152906040527f9710a9d0000000000000000000000000000000000000000000000000000000007bffffffffffffffffffffffffffffffffffffffffffffffffffffffff19166020820180517bffffffffffffffffffffffffffffffffffffffffffffffffffffffff83818316178352505050506106b5565b5050565b6106b1828260405160240161062f929190610ab1565b6040516020818303038152906040527f319af333000000000000000000000000000000000000000000000000000000007bffffffffffffffffffffffffffffffffffffffffffffffffffffffff19166020820180517bffffffffffffffffffffffffffffffffffffffffffffffffffffffff83818316178352505050506106b5565b5050565b60008151905060006a636f6e736f6c652e6c6f679050602083016000808483855afa5050505050565b8280546106ea90610d37565b90600052602060002090601f01602090048101928261070c5760008555610753565b82601f1061072557805160ff1916838001178555610753565b82800160010185558215610753579182015b82811115610752578251825591602001919060010190610737565b5b5090506107609190610764565b5090565b5b8082111561077d576000816000905550600101610765565b5090565b600061079461078f84610bc1565b610b9c565b9050828152602081018484840111156107ac57600080fd5b6107b7848285610cf5565b509392505050565b6000813590506107ce81610ed9565b92915050565b600082601f8301126107e557600080fd5b81356107f5848260208601610781565b91505092915050565b60006020828403121561081057600080fd5b600061081e848285016107bf565b91505092915050565b60006020828403121561083957600080fd5b600082013567ffffffffffffffff81111561085357600080fd5b61085f848285016107d4565b91505092915050565b600061087483836109ea565b905092915050565b61088581610cb9565b82525050565b61089481610cb9565b82525050565b60006108a582610c02565b6108af8185610c25565b9350836020820285016108c185610bf2565b8060005b858110156108fd57848403895281516108de8582610868565b94506108e983610c18565b925060208a019950506001810190506108c5565b50829750879550505050505092915050565b600061091a82610c0d565b6109248185610c41565b9350610934818560208601610d04565b61093d81610e27565b840191505092915050565b600061095382610c0d565b61095d8185610c52565b935061096d818560208601610d04565b61097681610e27565b840191505092915050565b600061098e600083610c36565b915061099982610e38565b600082019050919050565b60006109b1603383610c52565b91506109bc82610e3b565b604082019050919050565b60006109d4602683610c52565b91506109df82610e8a565b604082019050919050565b6000606083016000830151610a02600086018261087c565b506020830151610a156020860182610a3a565b5060408301518482036040860152610a2d828261090f565b9150508091505092915050565b610a4381610ceb565b82525050565b610a5281610ceb565b82525050565b6000610a6382610981565b9150819050919050565b60006020820190508181036000830152610a87818461089a565b905092915050565b60006020820190508181036000830152610aa98184610948565b905092915050565b60006040820190508181036000830152610acb8185610948565b9050610ada602083018461088b565b9392505050565b60006040820190508181036000830152610afb8185610948565b9050610b0a6020830184610a49565b9392505050565b60006020820190508181036000830152610b2a816109a4565b9050919050565b60006020820190508181036000830152610b4a816109c7565b9050919050565b6000602082019050610b666000830184610a49565b92915050565b6000604082019050610b816000830185610a49565b8181036020830152610b938184610948565b90509392505050565b6000610ba6610bb7565b9050610bb28282610d69565b919050565b6000604051905090565b600067ffffffffffffffff821115610bdc57610bdb610df8565b5b610be582610e27565b9050602081019050919050565b6000819050602082019050919050565b600081519050919050565b600081519050919050565b6000602082019050919050565b600082825260208201905092915050565b600081905092915050565b600082825260208201905092915050565b600082825260208201905092915050565b6000610c6e82610ceb565b9150610c7983610ceb565b9250827fffffffffffffffffffffffffffffffffffffffffffffffffffffffffffffffff03821115610cae57610cad610d9a565b5b828201905092915050565b6000610cc482610ccb565b9050919050565b600073ffffffffffffffffffffffffffffffffffffffff82169050919050565b6000819050919050565b82818337600083830152505050565b60005b83811015610d22578082015181840152602081019050610d07565b83811115610d31576000848401525b50505050565b60006002820490506001821680610d4f57607f821691505b60208210811415610d6357610d62610dc9565b5b50919050565b610d7282610e27565b810181811067ffffffffffffffff82111715610d9157610d90610df8565b5b80604052505050565b7f4e487b7100000000000000000000000000000000000000000000000000000000600052601160045260246000fd5b7f4e487b7100000000000000000000000000000000000000000000000000000000600052602260045260246000fd5b7f4e487b7100000000000000000000000000000000000000000000000000000000600052604160045260246000fd5b6000601f19601f8301169050919050565b50565b7f747279696e6720746f207769746864726177206d6f7265206d6f6e657920746860008201527f616e2074686520636f6e74726163742068617300000000000000000000000000602082015250565b7f6661696c656420746f207769746864726177206d6f6e65792066726f6d20636f60008201527f6e74726163740000000000000000000000000000000000000000000000000000602082015250565b610ee281610cb9565b8114610eed57600080fd5b5056fe6120746f74616c206f6620256420696e66696e697469657320726563696576656421a2646970667358221220df9527f9fa7dbf69b1af1b0a250e163d65e7acf7db994db5540127efc48dc54a64736f6c63430008040033",
  "linkReferences": {},
  "deployedLinkReferences": {}
}