{
  "_format": "hh-sol-artifact-1",
  "contractName": "InfPortal",
  "sourceName": "contracts/InfPortal.sol",
  "abi": [
    {
      "inputs": [],
      "stateMutability": "nonpayable",
      "type": "constructor"
    },
    {
      "anonymous": false,
      "inputs": [
        {
          "indexed": true,
          "internalType": "address",
          "name": "from",
          "type": "address"
        },
        {
          "indexed": false,
          "internalType": "uint256",
          "name": "timestamp",
          "type": "uint256"
        },
        {
          "indexed": false,
          "internalType": "string",
          "name": "message",
          "type": "string"
        }
      ],
      "name": "newInf",
      "type": "event"
    },
    {
      "inputs": [
        {
          "internalType": "uint256",
          "name": "",
          "type": "uint256"
        }
      ],
      "name": "addArray",
      "outputs": [
        {
          "internalType": "address",
          "name": "",
          "type": "address"
        }
      ],
      "stateMutability": "view",
      "type": "function"
    },
    {
      "inputs": [
        {
          "internalType": "address",
          "name": "",
          "type": "address"
        }
      ],
      "name": "data",
      "outputs": [
        {
          "internalType": "uint256",
          "name": "",
          "type": "uint256"
        }
      ],
      "stateMutability": "view",
      "type": "function"
    },
    {
      "inputs": [],
      "name": "getAllWaves",
      "outputs": [
        {
          "components": [
            {
              "internalType": "address",
              "name": "waver",
              "type": "address"
            },
            {
              "internalType": "uint256",
              "name": "timestamp",
              "type": "uint256"
            },
            {
              "internalType": "string",
              "name": "message",
              "type": "string"
            }
          ],
          "internalType": "struct InfPortal.Wave[]",
          "name": "",
          "type": "tuple[]"
        }
      ],
      "stateMutability": "view",
      "type": "function"
    },
    {
      "inputs": [],
      "name": "getData",
      "outputs": [
        {
          "internalType": "address[]",
          "name": "",
          "type": "address[]"
        },
        {
          "internalType": "uint256[]",
          "name": "",
          "type": "uint256[]"
        }
      ],
      "stateMutability": "view",
      "type": "function"
    },
    {
      "inputs": [],
      "name": "getTotalInf",
      "outputs": [
        {
          "internalType": "uint256",
          "name": "",
          "type": "uint256"
        }
      ],
      "stateMutability": "view",
      "type": "function"
    },
    {
      "inputs": [
        {
          "internalType": "address",
          "name": "someAdd",
          "type": "address"
        }
      ],
      "name": "inArray",
      "outputs": [
        {
          "internalType": "bool",
          "name": "",
          "type": "bool"
        }
      ],
      "stateMutability": "view",
      "type": "function"
    },
    {
      "inputs": [
        {
          "internalType": "string",
          "name": "_message",
          "type": "string"
        }
      ],
      "name": "inf",
      "outputs": [],
      "stateMutability": "nonpayable",
      "type": "function"
    },
    {
      "inputs": [],
      "name": "logData",
      "outputs": [],
      "stateMutability": "view",
      "type": "function"
    }
  ],
  "bytecode": "0x60806040523480156200001157600080fd5b506200005d6040518060400160405280601781526020017f286e6f7420736f2920736d61727420636f6e74726163740000000000000000008152506200006360201b62000a5f1760201c565b620001f7565b62000103816040516024016200007a919062000170565b6040516020818303038152906040527f41304fac000000000000000000000000000000000000000000000000000000007bffffffffffffffffffffffffffffffffffffffffffffffffffffffff19166020820180517bffffffffffffffffffffffffffffffffffffffffffffffffffffffff83818316178352505050506200010660201b60201c565b50565b60008151905060006a636f6e736f6c652e6c6f679050602083016000808483855afa5050505050565b60006200013c8262000194565b6200014881856200019f565b93506200015a818560208601620001b0565b6200016581620001e6565b840191505092915050565b600060208201905081810360008301526200018c81846200012f565b905092915050565b600081519050919050565b600082825260208201905092915050565b60005b83811015620001d0578082015181840152602081019050620001b3565b83811115620001e0576000848401525b50505050565b6000601f19601f8301169050919050565b6116ba80620002076000396000f3fe608060405234801561001057600080fd5b50600436106100885760003560e01c8063bcc17dc71161005b578063bcc17dc71461012a578063bd43a90814610134578063deac465914610152578063debce65e1461018257610088565b80633bc5de301461008d57806369878a46146100ac578063aa0a9171146100ca578063b90d3d0c146100fa575b600080fd5b61009561019e565b6040516100a392919061115d565b60405180910390f35b6100b4610482565b6040516100c19190611291565b60405180910390f35b6100e460048036038101906100df9190610e97565b6104b0565b6040516100f19190611142565b60405180910390f35b610114600480360381019061010f9190610e2d565b6104ef565b6040516101219190611291565b60405180910390f35b610132610507565b005b61013c610674565b6040516101499190611194565b60405180910390f35b61016c60048036038101906101679190610e2d565b6107c5565b60405161017991906111b6565b60405180910390f35b61019c60048036038101906101979190610e56565b610821565b005b606080600060028054905067ffffffffffffffff8111156101e8577f4e487b7100000000000000000000000000000000000000000000000000000000600052604160045260246000fd5b6040519080825280602002602001820160405280156102165781602001602082028036833780820191505090505b509050600060028054905067ffffffffffffffff811115610260577f4e487b7100000000000000000000000000000000000000000000000000000000600052604160045260246000fd5b60405190808252806020026020018201604052801561028e5781602001602082028036833780820191505090505b50905060005b60028054905081101561047557600281815481106102db577f4e487b7100000000000000000000000000000000000000000000000000000000600052603260045260246000fd5b9060005260206000200160009054906101000a900473ffffffffffffffffffffffffffffffffffffffff1683828151811061033f577f4e487b7100000000000000000000000000000000000000000000000000000000600052603260045260246000fd5b602002602001019073ffffffffffffffffffffffffffffffffffffffff16908173ffffffffffffffffffffffffffffffffffffffff168152505060016000600283815481106103b7577f4e487b7100000000000000000000000000000000000000000000000000000000600052603260045260246000fd5b9060005260206000200160009054906101000a900473ffffffffffffffffffffffffffffffffffffffff1673ffffffffffffffffffffffffffffffffffffffff1673ffffffffffffffffffffffffffffffffffffffff16815260200190815260200160002054828281518110610456577f4e487b7100000000000000000000000000000000000000000000000000000000600052603260045260246000fd5b602002602001018181525050808061046d9061154d565b915050610294565b5081819350935050509091565b60006104a860405180606001604052806022815260200161166360229139600054610af8565b600054905090565b600281815481106104c057600080fd5b906000526020600020016000915054906101000a900473ffffffffffffffffffffffffffffffffffffffff1681565b60016020528060005260406000206000915090505481565b60005b6002805490508110156106715761065e6040518060400160405280601581526020017f2573206761766520256420696e66696e697469657300000000000000000000008152506002838154811061058a577f4e487b7100000000000000000000000000000000000000000000000000000000600052603260045260246000fd5b9060005260206000200160009054906101000a900473ffffffffffffffffffffffffffffffffffffffff1660016000600286815481106105f3577f4e487b7100000000000000000000000000000000000000000000000000000000600052603260045260246000fd5b9060005260206000200160009054906101000a900473ffffffffffffffffffffffffffffffffffffffff1673ffffffffffffffffffffffffffffffffffffffff1673ffffffffffffffffffffffffffffffffffffffff16815260200190815260200160002054610b94565b80806106699061154d565b91505061050a565b50565b60606003805480602002602001604051908101604052809291908181526020016000905b828210156107bc57838290600052602060002090600302016040518060600160405290816000820160009054906101000a900473ffffffffffffffffffffffffffffffffffffffff1673ffffffffffffffffffffffffffffffffffffffff1673ffffffffffffffffffffffffffffffffffffffff1681526020016001820154815260200160028201805461072b906114ea565b80601f0160208091040260200160405190810160405280929190818152602001828054610757906114ea565b80156107a45780601f10610779576101008083540402835291602001916107a4565b820191906000526020600020905b81548152906001019060200180831161078757829003601f168201915b50505050508152505081526020019060010190610698565b50505050905090565b600080600160008473ffffffffffffffffffffffffffffffffffffffff1673ffffffffffffffffffffffffffffffffffffffff168152602001908152602001600020541115610817576001905061081c565b600090505b919050565b6001600080828254610833919061140a565b925050819055506108796040518060400160405280601a81526020017f2573206861732073656e7420616e20696e66696e69747921212100000000000081525033610c33565b600360405180606001604052803373ffffffffffffffffffffffffffffffffffffffff16815260200142815260200183815250908060018154018082558091505060019003906000526020600020906003020160009091909190915060008201518160000160006101000a81548173ffffffffffffffffffffffffffffffffffffffff021916908373ffffffffffffffffffffffffffffffffffffffff160217905550602082015181600101556040820151816002019080519060200190610942929190610cf8565b5050503373ffffffffffffffffffffffffffffffffffffffff167f04c2e80b1ea6392b043580374d64fcf82c7ea3bf34313563bb9f579c2498f195428360405161098d9291906112ac565b60405180910390a261099e336107c5565b610a06576002339080600181540180825580915050600190039060005260206000200160009091909190916101000a81548173ffffffffffffffffffffffffffffffffffffffff021916908373ffffffffffffffffffffffffffffffffffffffff1602179055505b60018060003373ffffffffffffffffffffffffffffffffffffffff1673ffffffffffffffffffffffffffffffffffffffff1681526020019081526020016000206000828254610a55919061140a565b9250508190555050565b610af581604051602401610a7391906111d1565b6040516020818303038152906040527f41304fac000000000000000000000000000000000000000000000000000000007bffffffffffffffffffffffffffffffffffffffffffffffffffffffff19166020820180517bffffffffffffffffffffffffffffffffffffffffffffffffffffffff8381831617835250505050610ccf565b50565b610b908282604051602401610b0e929190611261565b6040516020818303038152906040527f9710a9d0000000000000000000000000000000000000000000000000000000007bffffffffffffffffffffffffffffffffffffffffffffffffffffffff19166020820180517bffffffffffffffffffffffffffffffffffffffffffffffffffffffff8381831617835250505050610ccf565b5050565b610c2e838383604051602401610bac93929190611223565b6040516020818303038152906040527f07c81217000000000000000000000000000000000000000000000000000000007bffffffffffffffffffffffffffffffffffffffffffffffffffffffff19166020820180517bffffffffffffffffffffffffffffffffffffffffffffffffffffffff8381831617835250505050610ccf565b505050565b610ccb8282604051602401610c499291906111f3565b6040516020818303038152906040527f319af333000000000000000000000000000000000000000000000000000000007bffffffffffffffffffffffffffffffffffffffffffffffffffffffff19166020820180517bffffffffffffffffffffffffffffffffffffffffffffffffffffffff8381831617835250505050610ccf565b5050565b60008151905060006a636f6e736f6c652e6c6f679050602083016000808483855afa5050505050565b828054610d04906114ea565b90600052602060002090601f016020900481019282610d265760008555610d6d565b82601f10610d3f57805160ff1916838001178555610d6d565b82800160010185558215610d6d579182015b82811115610d6c578251825591602001919060010190610d51565b5b509050610d7a9190610d7e565b5090565b5b80821115610d97576000816000905550600101610d7f565b5090565b6000610dae610da984611301565b6112dc565b905082815260208101848484011115610dc657600080fd5b610dd18482856114a8565b509392505050565b600081359050610de881611634565b92915050565b600082601f830112610dff57600080fd5b8135610e0f848260208601610d9b565b91505092915050565b600081359050610e278161164b565b92915050565b600060208284031215610e3f57600080fd5b6000610e4d84828501610dd9565b91505092915050565b600060208284031215610e6857600080fd5b600082013567ffffffffffffffff811115610e8257600080fd5b610e8e84828501610dee565b91505092915050565b600060208284031215610ea957600080fd5b6000610eb784828501610e18565b91505092915050565b6000610ecc8383610f04565b60208301905092915050565b6000610ee483836110d4565b905092915050565b6000610ef88383611124565b60208301905092915050565b610f0d81611460565b82525050565b610f1c81611460565b82525050565b6000610f2d82611362565b610f3781856113b5565b9350610f4283611332565b8060005b83811015610f73578151610f5a8882610ec0565b9750610f658361138e565b925050600181019050610f46565b5085935050505092915050565b6000610f8b8261136d565b610f9581856113c6565b935083602082028501610fa785611342565b8060005b85811015610fe35784840389528151610fc48582610ed8565b9450610fcf8361139b565b925060208a01995050600181019050610fab565b50829750879550505050505092915050565b600061100082611378565b61100a81856113d7565b935061101583611352565b8060005b8381101561104657815161102d8882610eec565b9750611038836113a8565b925050600181019050611019565b5085935050505092915050565b61105c81611472565b82525050565b600061106d82611383565b61107781856113e8565b93506110878185602086016114b7565b61109081611623565b840191505092915050565b60006110a682611383565b6110b081856113f9565b93506110c08185602086016114b7565b6110c981611623565b840191505092915050565b60006060830160008301516110ec6000860182610f04565b5060208301516110ff6020860182611124565b50604083015184820360408601526111178282611062565b9150508091505092915050565b61112d8161149e565b82525050565b61113c8161149e565b82525050565b60006020820190506111576000830184610f13565b92915050565b600060408201905081810360008301526111778185610f22565b9050818103602083015261118b8184610ff5565b90509392505050565b600060208201905081810360008301526111ae8184610f80565b905092915050565b60006020820190506111cb6000830184611053565b92915050565b600060208201905081810360008301526111eb818461109b565b905092915050565b6000604082019050818103600083015261120d818561109b565b905061121c6020830184610f13565b9392505050565b6000606082019050818103600083015261123d818661109b565b905061124c6020830185610f13565b6112596040830184611133565b949350505050565b6000604082019050818103600083015261127b818561109b565b905061128a6020830184611133565b9392505050565b60006020820190506112a66000830184611133565b92915050565b60006040820190506112c16000830185611133565b81810360208301526112d3818461109b565b90509392505050565b60006112e66112f7565b90506112f2828261151c565b919050565b6000604051905090565b600067ffffffffffffffff82111561131c5761131b6115f4565b5b61132582611623565b9050602081019050919050565b6000819050602082019050919050565b6000819050602082019050919050565b6000819050602082019050919050565b600081519050919050565b600081519050919050565b600081519050919050565b600081519050919050565b6000602082019050919050565b6000602082019050919050565b6000602082019050919050565b600082825260208201905092915050565b600082825260208201905092915050565b600082825260208201905092915050565b600082825260208201905092915050565b600082825260208201905092915050565b60006114158261149e565b91506114208361149e565b9250827fffffffffffffffffffffffffffffffffffffffffffffffffffffffffffffffff0382111561145557611454611596565b5b828201905092915050565b600061146b8261147e565b9050919050565b60008115159050919050565b600073ffffffffffffffffffffffffffffffffffffffff82169050919050565b6000819050919050565b82818337600083830152505050565b60005b838110156114d55780820151818401526020810190506114ba565b838111156114e4576000848401525b50505050565b6000600282049050600182168061150257607f821691505b60208210811415611516576115156115c5565b5b50919050565b61152582611623565b810181811067ffffffffffffffff82111715611544576115436115f4565b5b80604052505050565b60006115588261149e565b91507fffffffffffffffffffffffffffffffffffffffffffffffffffffffffffffffff82141561158b5761158a611596565b5b600182019050919050565b7f4e487b7100000000000000000000000000000000000000000000000000000000600052601160045260246000fd5b7f4e487b7100000000000000000000000000000000000000000000000000000000600052602260045260246000fd5b7f4e487b7100000000000000000000000000000000000000000000000000000000600052604160045260246000fd5b6000601f19601f8301169050919050565b61163d81611460565b811461164857600080fd5b50565b6116548161149e565b811461165f57600080fd5b5056fe6120746f74616c206f6620256420696e66696e697469657320726563696576656421a26469706673582212200b326e9eef25f78261718a027199096691c423fa6365b853260a528da8436bb664736f6c63430008040033",
  "linkReferences": {},
  "deployedLinkReferences": {}
}